:100000000C9466000C9483000C9483000C94830081
:100010000C9483000C9483000C9483000C949B0735
:100020000C9483000C9483000C9483000C94830044
:100030000C9483000C9483000C9483000C94830034
:100040000C9462030C9483000C9483000C94830042
:100050000C9483000C9483000C9483000C94830014
:100060000C9483000C94830000000009000302003C
:10007000000405080000000000000000000000016E
:10008000020408102040800102040810200102042C
:100090000810204080400404040404040404020204
:1000A000020202020303030303030202030000002F
:1000B0000023002600290000000000250028002B56
:1000C0000000000000240027002A000211241FBEA7
:1000D000CFEFD8E0DEBFCDBF11E0A0E0B1E0ECE1B2
:1000E000F3E102C005900D92AA31B107D9F721E0E2
:1000F000AAE1B1E001C01D92A034B207E1F70E946D
:10010000F8070C948C090C940000CF92DF92EF92C8
:10011000FF920F931F93E82FF92F05C0015011098B
:100120002109310961F1908196239417B9F305C033
:10013000015011092109310911F19081962394137D
:10014000F7CFC12CD12CE12CF12C0AC08FEFC81AAB
:10015000D80AE80AF80A0C151D052E053F0579F0A6
:1001600080818623841791F36C2D7D2D8E2D9F2DFC
:100170001F910F91FF90EF90DF90CF90089560E076
:1001800070E080E090E01F910F91FF90EF90DF9082
:10019000CF90089561E0809116010E945D0461E0B6
:1001A000809114010E945D0461E0809112010E941F
:1001B0005D0461E0809110010E945D0461E0809126
:1001C00020010E945D0461E0809104010E945D04B1
:1001D00061E0809102010E945D0461E08091000174
:1001E0000E945D0461E080910E010E945D0460E068
:1001F00080910C010E945D0461E0809106010E94E3
:100200005D0461E080910A010E945D0461E08091DB
:1002100008010C945D04CF93DF93CEE0D1E061E060
:1002200088810E94990461E070E080E090E00E9483
:10023000D10360E088810E94990420E432E44FE019
:1002400050E061E080910C010E94C704072E000C71
:10025000880B990B0E9481082DEC3CEC48E652E497
:100260000E940D08DF91CF91089561E08091160101
:100270000E94990460E0809114010E94990460E05A
:10028000809112010E94990460E0809110010E9407
:10029000990481E090E0089560E0809116010E9449
:1002A000990461E0809114010E94990460E08091BA
:1002B00012010E94990460E0809110010E9499044B
:1002C00082E090E0089560E0809116010E94990418
:1002D00060E0809114010E94990461E08091120114
:1002E0000E94990460E0809110010E94990483E0CB
:1002F00090E0089560E0809116010E94990460E00A
:10030000809114010E94990460E0809112010E9482
:10031000990461E0809110010E94990484E090E0CA
:100320000895CF92DF92EF92FF920F931F93CF9396
:10033000DF9380E2C82E81E0D82E61E0F601808153
:100340000E94990494E0E92E91E0F92E60E0F70113
:1003500080810E94990402E011E060E0F801808150
:100360000E949904C0E0D1E060E088810E94990475
:1003700060E0F60180810E94990461E0F7018081CC
:100380000E94990460E0F80180810E94990460E075
:100390008881DF91CF911F910F91FF90EF90DF90B7
:1003A000CF900C949904CF92DF92EF92FF920F932B
:1003B0001F93CF93DF9380E2C82E81E0D82E60E0B8
:1003C000F60180810E94990494E0E92E91E0F92ED3
:1003D00060E0F70180810E94990402E011E061E091
:1003E000F80180810E949904C0E0D1E060E088813A
:1003F0000E94990460E0F60180810E94990460E007
:10040000F70180810E94990460E0F80180810E94D8
:10041000990461E08881DF91CF911F910F91FF9046
:10042000EF90DF90CF900C949904CF92DF92EF92EF
:10043000FF920F931F93CF93DF9380E2C82E81E04A
:10044000D82E61E0F60180810E94990494E0E92EA3
:1004500091E0F92E60E0F70180810E94990402E0AA
:1004600011E060E0F80180810E949904C0E0D1E0D1
:1004700060E088810E94990460E0F60180810E941A
:10048000990460E0F70180810E94990460E0F8011E
:1004900080810E94990461E08881DF91CF911F9152
:1004A0000F91FF90EF90DF90CF900C949904CF9232
:1004B000DF92EF92FF920F931F93CF93DF9380E22F
:1004C000C82E81E0D82E60E0F60180810E94990458
:1004D00094E0E92E91E0F92E61E0F70180810E941D
:1004E000990402E011E060E0F80180810E94990423
:1004F000C0E0D1E060E088810E94990460E0F601EC
:1005000080810E94990460E0F70180810E94990433
:1005100061E0F80180810E94990460E08881DF91A8
:10052000CF911F910F91FF90EF90DF90CF900C949F
:100530009904CF93DF930E940B0120E030E040E765
:1005400051E40E94080887FF89C080911A019091A8
:100550001B0104973CF1C5E0D0E061E08091080107
:100560000E94990420E030E0A9016FE177E18091D9
:1005700006010E94090564EF71E080E090E00E94AE
:10058000D103809106010E94860760E080910801F6
:100590000E94990464EF71E080E090E00E94D10332
:1005A0002197D9F680911E0190911F010196909399
:1005B0001F0180931E0180FF4CC00E94910181E0C9
:1005C00090E090931D0180931C0168EE73E080E041
:1005D00090E00E94D1030E94350164EF71E080E059
:1005E00090E00E94D1030E944C0164EF71E080E032
:1005F00090E00E94D1030E94630164EF71E080E00B
:1006000090E00E94D1030E947A0161E080910A018A
:100610000E94990460ED77E080E090E00E94D103B1
:1006200060E080910A010E9499040E940B0160ED34
:1006300077E080E090E00E94D10380911A019091D0
:100640001B01019690931B0180931A01DF91CF91BA
:1006500008950E94D30182E090E0B3CF10921B0175
:1006600010921A0180911C0190911D018130910519
:1006700021F50E9415020E94350164EF71E080E0CF
:1006800090E00E94D1030E944C0164EF71E080E091
:1006900090E00E94D1030E94630164EF71E080E06A
:1006A00090E00E94D1030E947A0164EF71E080E043
:1006B00090E0DF91CF910C94D1030297E1F60E9474
:1006C0005702D9CF1F920F920FB60F9211242F937A
:1006D0003F938F939F93AF93BF9380912701909106
:1006E0002801A0912901B0912A01309126012CE026
:1006F000230F2D3768F12FE8230F0596A11DB11D9B
:10070000209326018093270190932801A09329012B
:10071000B0932A018091220190912301A09124019C
:10072000B09125010196A11DB11D809322019093E6
:100730002301A0932401B0932501BF91AF919F9114
:100740008F913F912F910F900FBE0F901F90189592
:100750000496A11DB11DD4CF3FB7F894809122011A
:1007600090912301A0912401B091250126B5A89B69
:1007700005C02F3F19F00196A11DB11D3FBFBA2F33
:10078000A92F982F8827BC01CD01620F711D811DF3
:10079000911D44E0660F771F881F991F4A95D1F776
:1007A00008958F929F92AF92BF92CF92DF92EF9275
:1007B000FF926B017C010E94AC034B015C01C114F0
:1007C000D104E104F104E9F00E9407080E94AC039F
:1007D000681979098A099B09683E7340810591056A
:1007E00070F321E0C21AD108E108F10888EE880E02
:1007F00083E0981EA11CB11CC114D104E104F104D2
:1008000029F7FF90EF90DF90CF90BF90AF909F902F
:100810008F9008957894E1E6F0E080E8808381E0AD
:10082000808384B5836084BD85B5836085BDEEE635
:10083000F0E080818160808382E080938100E0E845
:10084000F0E0808181608083E1EBF0E08081846072
:100850008083E0EBF0E080818160808385E8809395
:100860007A001092C1000895843081F028F482301B
:10087000E9F08330F9F00895883071F0893091F013
:100880008530B9F4809180008F7D03C08091800015
:100890008F778093800008958091B0008F77809348
:1008A000B00008958091B0008F7DF9CF84B58F7727
:1008B00084BD089584B58F7DFBCFCF93DF9390E007
:1008C000FC01E158FF4F24918A569F4FFC0184910F
:1008D0008823C9F090E0880F991FFC01EF53FF4F68
:1008E000A591B491FC01E954FF4FC591D4916111D8
:1008F0000DC09FB7F8948C91209582238C938881AA
:10090000282328839FBFDF91CF910895623051F44F
:100910009FB7F8943C91822F809583238C93E88134
:100920002E2BEFCF8FB7F894EC912E2B2C938FBFFB
:10093000EACF1F93CF93DF93282F30E0F901E859D6
:10094000FF4F8491F901E158FF4FD491F901EA5624
:10095000FF4FC491CC23A9F0162F81110E943404BB
:10096000EC2FF0E0EE0FFF1FE954FF4FA591B4917B
:100970008FB7F894EC91111108C0D095DE23DC9369
:100980008FBFDF91CF911F910895DE2BF8CF0F938A
:100990001F9390E0FC01E158FF4F7491FC01EA566F
:1009A000FF4FE4916111672FF0E0EE0FFF1FE35559
:1009B000FF4F8591949189019A01B2E0000F111FB8
:1009C000221F331FBA95D1F744E036952795179526
:1009D00007954A95D1F7462F672F0E94850061152C
:1009E00071058105910591F06F5F7F4F8F4F9F4F8C
:1009F00024E0660F771F881F991F2A95D1F732E0F0
:100A000096958795779567953A95D1F71F910F91B0
:100A100008954F925F926F927F928F929F92AF92C2
:100A2000BF92CF92DF92EF92FF920F931F93CF93DB
:100A3000DF9300D000D01F92CDB7DEB78B012983A2
:100A40003A834B835C83909118018917C9F09F3FCB
:100A500009F4F0C00F900F900F900F900F90DF915E
:100A6000CF911F910F91FF90EF90DF90CF90BF90AB
:100A7000AF909F908F907F906F905F904F90089570
:100A8000EBECF0E094919D8397FDE4CF61E00E9450
:100A90005D04BD81BB2321F08D81823009F071C1DD
:100AA0002801712C612C60E874E88EE190E0A301CC
:100AB00098010E94530949015A017A01690191E0A4
:100AC000C91AD108E108F108AFEFCA16D104E10450
:100AD000F10409F00CF431C160E970ED83E090E0BD
:100AE000A30198010E94530969017A01B1E0CB1A70
:100AF000D108E108F1088D81823009F0A2C182E0BD
:100B00009FEFC916D104E104F10409F00CF468C0A8
:100B100064E274EF80E090E0A30198010E94530921
:100B200069017A01A1E0CA1AD108E108F10883E05D
:100B3000BFEFCB16D104E104F10409F008F450C072
:100B400062E17AE780E090E0A30198010E945309F6
:100B500069017A0181E0C81AD108E108F10884E04E
:100B60009FEFC916D104E104F104D1F1C8F169E0A5
:100B70007DE380E090E0A30198010E9453096901A0
:100B80007A01A1E0CA1AD108E108F10885E0BFEFB7
:100B9000CB16D104E104F10419F110F1FF24B7FCE4
:100BA000FA94EB2CDA2CC92C81E0C81AD108E108A0
:100BB000F10886E09FEFC916D104E104F10481F049
:100BC00078F0750164019AE0F594E794D794C7949E
:100BD0009A95D1F781E0C81AD108E108F10887E0B9
:100BE0009091B100987F892B8093B10089819A817F
:100BF000AB81BC812FEF3FEFA901892B8A2B8B2B77
:100C000009F0AFC09D81913009F4F9C0923009F428
:100C100008C191111FCFC7BC20933C0130933D0107
:100C200040933E0150933F0180916E00826080931B
:100C30006E0010CF80931801EBECF0E0A491AD832F
:100C4000AF3F09F407CFA13061F150F0A23009F4B1
:100C50004EC0AD81A7FDFECE61E00E945D041CCFB9
:100C600014BC15BC94B5926094BD95B5916095BDCA
:100C7000282F30E0F901EA56FF4FE491F0E0EE0F43
:100C8000FF1FE954FF4F4591549150933B0140930E
:100C90003A01F901E158FF4FE491E09339011D82D7
:100CA000F5CE1092800010928100909181009860A2
:100CB0009093810090918100916090938100282F02
:100CC00030E0F901EA56FF4FE491F0E0EE0FFF1F2C
:100CD000E954FF4F459154915093340140933301AF
:100CE000F901E158FF4FE491E0933201CFCE109229
:100CF000B0001092B1009091B00092609093B0005B
:100D00009091B10091609093B100282F30E0F901EB
:100D1000EA56FF4FE491F0E0EE0FFF1FE954FF4F5A
:100D20004591549150932D0140932C01F901E158C4
:100D3000FF4FE491E0932B01A9CE81E0AD81A11199
:100D40004FCF95B5987F892B85BD89819A81AB81DD
:100D5000BC812FEF3FEFA901892B8A2B8B2B09F444
:100D60005ACFD801AA0FBB1F29813A814B815C81E0
:100D70000E94720928EE33E040E050E00E94310901
:100D800041CFB12CA12C60E874E88EE190E0A50180
:100D900098010E94530969017A0191E0C91AD108AA
:100DA000E108F10891E0C114D104A1E0EA06F104E0
:100DB00084F062E17AE780E090E0A50198010E946A
:100DC000530969017A01B1E0CB1AD108E108F108B1
:100DD00093E08D81813009F009CF80918100887F77
:100DE000892B8093810089819A81AB81BC812FEF0F
:100DF0003FEFA901892B8A2B8B2B09F0B2CFD09220
:100E00008900C092880020933501309336014093C9
:100E100037015093380180916F00826080936F009A
:100E200019CEC092B30020932E0130932F0140932E
:100E30003001509331018091700082608093700086
:100E400009CE82E09FEFC916D104E104F10409F054
:100E50000CF474CF62E17AE780E090E0A3019201A4
:100E60000E94530969017A01B1E0CB1AD108E10867
:100E7000F1088FEFC816D104E104F10409F010F471
:100E800083E05CCFFF24B7FCFA94EB2CDA2CC92C5E
:100E9000A1E0CA1AD108E108F10884E0BFEFCB163F
:100EA000D104E104F10409F008F448CF75016401AC
:100EB0008AE0F594E794D794C7948A95D1F791E0A6
:100EC000C91AD108E108F10885E038CF813039F03E
:100ED00018F0823051F0089510926E0008958091BC
:100EE0006F008D7F80936F000895809170008D7FDB
:100EF0008093700081E08093B0008091B100887F82
:100F000084608093B1001092B3000895CF93C82FEE
:100F100080911801C8130DC0EBECF0E084919FEFB5
:100F2000909318010E94660760E08C2FCF910C947B
:100F300099048FEFF7CF1F920F920FB60F921124E3
:100F40002F933F934F935F936F937F938F939F93D1
:100F5000AF93BF93EF93FF9380912E0190912F0158
:100F6000A0913001B0913101892B8A2B8B2BD1F1CB
:100F700090912B01E0912C01F0912D018081892726
:100F8000808380912E0190912F01A0913001B0912A
:100F90003101181619061A061B069CF480912E01C1
:100FA00090912F01A0913001B09131010197A109D9
:100FB000B10980932E0190932F01A0933001B0933B
:100FC0003101FF91EF91BF91AF919F918F917F91EF
:100FD0006F915F914F913F912F910F900FBE0F90A6
:100FE0001F901895809118010E948607EACF0895F6
:100FF0000E940A040E94F7070E94CA00C0E0D0E0E5
:101000000E9499022097E1F30E940000F9CF089511
:101010000E94BC0808F481E008950E9421080C9405
:10102000F7080E94F00858F00E94E90840F029F4FF
:101030005F3F29F00C94E00851110C942B090C949B
:10104000E6080E94080968F39923B1F3552391F348
:10105000951B550BBB27AA2762177307840738F027
:101060009F5F5F4F220F331F441FAA1FA9F335D084
:101070000E2E3AF0E0E832D091505040E695001C38
:10108000CAF72BD0FE2F29D0660F771F881FBB1FF2
:10109000261737074807AB07B0E809F0BB0B802DD0
:1010A000BF01FF2793585F4F3AF09E3F510578F0FC
:1010B0000C94E0080C942B095F3FE4F3983ED4F3C2
:1010C000869577956795B795F7959F5FC9F7880FD0
:1010D000911D9695879597F90895E1E0660F771F22
:1010E000881FBB1F621773078407BA0720F0621BB3
:1010F000730B840BBA0BEE1F88F7E0950895E89404
:1011000009C097FB3EF490958095709561957F4F4F
:101110008F4F9F4F9923A9F0F92F96E9BB279395FD
:10112000F695879577956795B795F111F8CFFAF40D
:10113000BB0F11F460FF1BC06F5F7F4F8F4F9F4F3E
:1011400016C0882311F096E911C0772321F09EE89C
:10115000872F762F05C0662371F096E8862F70E002
:1011600060E02AF09A95660F771F881FDAF7880FDC
:101170009695879597F90895990F0008550FAA0B32
:10118000E0E8FEEF16161706E807F907C0F012169A
:101190001306E407F50798F0621B730B840B950B9D
:1011A00039F40A2661F0232B242B252B21F40895F2
:1011B0000A2609F4A140A6958FEF811D811D08958F
:1011C00097F99F6780E870E060E008959FEF80ECFA
:1011D000089500240A94161617061806090608959D
:1011E00000240A9412161306140605060895092E03
:1011F0000394000C11F4882352F0BB0F40F4BF2B72
:1012000011F460FF04C06F5F7F4F8F4F9F4F0895B1
:1012100057FD9058440F551F59F05F3F71F04795A7
:10122000880F97FB991F61F09F3F79F0879508958C
:10123000121613061406551FF2CF4695F1DF08C0AB
:10124000161617061806991FF1CF869571056105C8
:1012500008940895E894BB2766277727CB0197F970
:101260000895A1E21A2EAA1BBB1BFD010DC0AA1FE7
:10127000BB1FEE1FFF1FA217B307E407F50720F0FF
:10128000A21BB30BE40BF50B661F771F881F991F7A
:101290001A9469F760957095809590959B01AC01C3
:1012A000BD01CF010895052E97FB1EF400940E9406
:1012B0006A0957FD07D00E94310907FC03D04EF49C
:1012C0000C946A0950954095309521953F4F4F4FAA
:1012D0005F4F089590958095709561957F4F8F4FE2
:1012E0009F4F08950E947D09A59F900DB49F900D7A
:1012F000A49F800D911D11240895A29FB001B39F5A
:10130000C001A39F700D811D1124911DB29F700D0E
:0C131000811D1124911D0895F894FFCF59
:10131C000300020001000D000C0004000700060091
:0A132C000B000A0009000800FF0092
:00000001FF
